{
  "abi": [
    {
      "inputs": [],
      "stateMutability": "nonpayable",
      "type": "constructor"
    },
    {
      "anonymous": false,
      "inputs": [
        {
          "indexed": true,
          "internalType": "address",
          "name": "owner",
          "type": "address"
        },
        {
          "indexed": true,
          "internalType": "address",
          "name": "approved",
          "type": "address"
        },
        {
          "indexed": true,
          "internalType": "uint256",
          "name": "tokenId",
          "type": "uint256"
        }
      ],
      "name": "Approval",
      "type": "event"
    },
    {
      "anonymous": false,
      "inputs": [
        {
          "indexed": true,
          "internalType": "address",
          "name": "owner",
          "type": "address"
        },
        {
          "indexed": true,
          "internalType": "address",
          "name": "operator",
          "type": "address"
        },
        {
          "indexed": false,
          "internalType": "bool",
          "name": "approved",
          "type": "bool"
        }
      ],
      "name": "ApprovalForAll",
      "type": "event"
    },
    {
      "anonymous": false,
      "inputs": [
        {
          "indexed": false,
          "internalType": "address",
          "name": "account",
          "type": "address"
        }
      ],
      "name": "Paused",
      "type": "event"
    },
    {
      "anonymous": false,
      "inputs": [
        {
          "indexed": true,
          "internalType": "bytes32",
          "name": "role",
          "type": "bytes32"
        },
        {
          "indexed": true,
          "internalType": "bytes32",
          "name": "previousAdminRole",
          "type": "bytes32"
        },
        {
          "indexed": true,
          "internalType": "bytes32",
          "name": "newAdminRole",
          "type": "bytes32"
        }
      ],
      "name": "RoleAdminChanged",
      "type": "event"
    },
    {
      "anonymous": false,
      "inputs": [
        {
          "indexed": true,
          "internalType": "bytes32",
          "name": "role",
          "type": "bytes32"
        },
        {
          "indexed": true,
          "internalType": "address",
          "name": "account",
          "type": "address"
        },
        {
          "indexed": true,
          "internalType": "address",
          "name": "sender",
          "type": "address"
        }
      ],
      "name": "RoleGranted",
      "type": "event"
    },
    {
      "anonymous": false,
      "inputs": [
        {
          "indexed": true,
          "internalType": "bytes32",
          "name": "role",
          "type": "bytes32"
        },
        {
          "indexed": true,
          "internalType": "address",
          "name": "account",
          "type": "address"
        },
        {
          "indexed": true,
          "internalType": "address",
          "name": "sender",
          "type": "address"
        }
      ],
      "name": "RoleRevoked",
      "type": "event"
    },
    {
      "anonymous": false,
      "inputs": [
        {
          "indexed": true,
          "internalType": "address",
          "name": "from",
          "type": "address"
        },
        {
          "indexed": true,
          "internalType": "address",
          "name": "to",
          "type": "address"
        },
        {
          "indexed": true,
          "internalType": "uint256",
          "name": "tokenId",
          "type": "uint256"
        }
      ],
      "name": "Transfer",
      "type": "event"
    },
    {
      "anonymous": false,
      "inputs": [
        {
          "indexed": false,
          "internalType": "address",
          "name": "account",
          "type": "address"
        }
      ],
      "name": "Unpaused",
      "type": "event"
    },
    {
      "inputs": [],
      "name": "DEFAULT_ADMIN_ROLE",
      "outputs": [
        {
          "internalType": "bytes32",
          "name": "",
          "type": "bytes32"
        }
      ],
      "stateMutability": "view",
      "type": "function"
    },
    {
      "inputs": [],
      "name": "MINT_ROLE",
      "outputs": [
        {
          "internalType": "bytes32",
          "name": "",
          "type": "bytes32"
        }
      ],
      "stateMutability": "view",
      "type": "function"
    },
    {
      "inputs": [
        {
          "internalType": "address",
          "name": "to",
          "type": "address"
        },
        {
          "internalType": "uint256",
          "name": "tokenId",
          "type": "uint256"
        }
      ],
      "name": "approve",
      "outputs": [],
      "stateMutability": "nonpayable",
      "type": "function"
    },
    {
      "inputs": [
        {
          "internalType": "address",
          "name": "owner",
          "type": "address"
        }
      ],
      "name": "balanceOf",
      "outputs": [
        {
          "internalType": "uint256",
          "name": "",
          "type": "uint256"
        }
      ],
      "stateMutability": "view",
      "type": "function"
    },
    {
      "inputs": [
        {
          "internalType": "uint256",
          "name": "_tokenId",
          "type": "uint256"
        }
      ],
      "name": "burn",
      "outputs": [],
      "stateMutability": "nonpayable",
      "type": "function"
    },
    {
      "inputs": [
        {
          "internalType": "uint256",
          "name": "tokenId",
          "type": "uint256"
        }
      ],
      "name": "getApproved",
      "outputs": [
        {
          "internalType": "address",
          "name": "",
          "type": "address"
        }
      ],
      "stateMutability": "view",
      "type": "function"
    },
    {
      "inputs": [
        {
          "internalType": "bytes32",
          "name": "role",
          "type": "bytes32"
        }
      ],
      "name": "getRoleAdmin",
      "outputs": [
        {
          "internalType": "bytes32",
          "name": "",
          "type": "bytes32"
        }
      ],
      "stateMutability": "view",
      "type": "function"
    },
    {
      "inputs": [
        {
          "internalType": "bytes32",
          "name": "role",
          "type": "bytes32"
        },
        {
          "internalType": "address",
          "name": "account",
          "type": "address"
        }
      ],
      "name": "grantRole",
      "outputs": [],
      "stateMutability": "nonpayable",
      "type": "function"
    },
    {
      "inputs": [
        {
          "internalType": "bytes32",
          "name": "role",
          "type": "bytes32"
        },
        {
          "internalType": "address",
          "name": "account",
          "type": "address"
        }
      ],
      "name": "hasRole",
      "outputs": [
        {
          "internalType": "bool",
          "name": "",
          "type": "bool"
        }
      ],
      "stateMutability": "view",
      "type": "function"
    },
    {
      "inputs": [
        {
          "internalType": "address",
          "name": "owner",
          "type": "address"
        },
        {
          "internalType": "address",
          "name": "operator",
          "type": "address"
        }
      ],
      "name": "isApprovedForAll",
      "outputs": [
        {
          "internalType": "bool",
          "name": "",
          "type": "bool"
        }
      ],
      "stateMutability": "view",
      "type": "function"
    },
    {
      "inputs": [
        {
          "internalType": "address",
          "name": "to",
          "type": "address"
        },
        {
          "internalType": "string",
          "name": "_tokenURI",
          "type": "string"
        }
      ],
      "name": "mint",
      "outputs": [],
      "stateMutability": "nonpayable",
      "type": "function"
    },
    {
      "inputs": [],
      "name": "name",
      "outputs": [
        {
          "internalType": "string",
          "name": "",
          "type": "string"
        }
      ],
      "stateMutability": "view",
      "type": "function"
    },
    {
      "inputs": [
        {
          "internalType": "uint256",
          "name": "tokenId",
          "type": "uint256"
        }
      ],
      "name": "ownerOf",
      "outputs": [
        {
          "internalType": "address",
          "name": "",
          "type": "address"
        }
      ],
      "stateMutability": "view",
      "type": "function"
    },
    {
      "inputs": [],
      "name": "pause",
      "outputs": [],
      "stateMutability": "nonpayable",
      "type": "function"
    },
    {
      "inputs": [],
      "name": "paused",
      "outputs": [
        {
          "internalType": "bool",
          "name": "",
          "type": "bool"
        }
      ],
      "stateMutability": "view",
      "type": "function"
    },
    {
      "inputs": [
        {
          "internalType": "bytes32",
          "name": "role",
          "type": "bytes32"
        },
        {
          "internalType": "address",
          "name": "account",
          "type": "address"
        }
      ],
      "name": "renounceRole",
      "outputs": [],
      "stateMutability": "nonpayable",
      "type": "function"
    },
    {
      "inputs": [
        {
          "internalType": "bytes32",
          "name": "role",
          "type": "bytes32"
        },
        {
          "internalType": "address",
          "name": "account",
          "type": "address"
        }
      ],
      "name": "revokeRole",
      "outputs": [],
      "stateMutability": "nonpayable",
      "type": "function"
    },
    {
      "inputs": [
        {
          "internalType": "address",
          "name": "from",
          "type": "address"
        },
        {
          "internalType": "address",
          "name": "to",
          "type": "address"
        },
        {
          "internalType": "uint256",
          "name": "tokenId",
          "type": "uint256"
        }
      ],
      "name": "safeTransferFrom",
      "outputs": [],
      "stateMutability": "nonpayable",
      "type": "function"
    },
    {
      "inputs": [
        {
          "internalType": "address",
          "name": "from",
          "type": "address"
        },
        {
          "internalType": "address",
          "name": "to",
          "type": "address"
        },
        {
          "internalType": "uint256",
          "name": "tokenId",
          "type": "uint256"
        },
        {
          "internalType": "bytes",
          "name": "data",
          "type": "bytes"
        }
      ],
      "name": "safeTransferFrom",
      "outputs": [],
      "stateMutability": "nonpayable",
      "type": "function"
    },
    {
      "inputs": [
        {
          "internalType": "address",
          "name": "operator",
          "type": "address"
        },
        {
          "internalType": "bool",
          "name": "approved",
          "type": "bool"
        }
      ],
      "name": "setApprovalForAll",
      "outputs": [],
      "stateMutability": "nonpayable",
      "type": "function"
    },
    {
      "inputs": [
        {
          "internalType": "bytes4",
          "name": "interfaceId",
          "type": "bytes4"
        }
      ],
      "name": "supportsInterface",
      "outputs": [
        {
          "internalType": "bool",
          "name": "",
          "type": "bool"
        }
      ],
      "stateMutability": "view",
      "type": "function"
    },
    {
      "inputs": [],
      "name": "symbol",
      "outputs": [
        {
          "internalType": "string",
          "name": "",
          "type": "string"
        }
      ],
      "stateMutability": "view",
      "type": "function"
    },
    {
      "inputs": [
        {
          "internalType": "address",
          "name": "owner",
          "type": "address"
        }
      ],
      "name": "tokenByOwner",
      "outputs": [
        {
          "internalType": "uint256",
          "name": "",
          "type": "uint256"
        }
      ],
      "stateMutability": "view",
      "type": "function"
    },
    {
      "inputs": [
        {
          "internalType": "uint256",
          "name": "tokenId",
          "type": "uint256"
        }
      ],
      "name": "tokenURI",
      "outputs": [
        {
          "internalType": "string",
          "name": "",
          "type": "string"
        }
      ],
      "stateMutability": "view",
      "type": "function"
    },
    {
      "inputs": [
        {
          "internalType": "address",
          "name": "owner",
          "type": "address"
        }
      ],
      "name": "tokenURIByOwner",
      "outputs": [
        {
          "internalType": "string",
          "name": "",
          "type": "string"
        }
      ],
      "stateMutability": "view",
      "type": "function"
    },
    {
      "inputs": [],
      "name": "totalSupply",
      "outputs": [
        {
          "internalType": "uint256",
          "name": "",
          "type": "uint256"
        }
      ],
      "stateMutability": "view",
      "type": "function"
    },
    {
      "inputs": [
        {
          "internalType": "address",
          "name": "from",
          "type": "address"
        },
        {
          "internalType": "address",
          "name": "to",
          "type": "address"
        },
        {
          "internalType": "uint256",
          "name": "tokenId",
          "type": "uint256"
        }
      ],
      "name": "transferFrom",
      "outputs": [],
      "stateMutability": "nonpayable",
      "type": "function"
    },
    {
      "inputs": [],
      "name": "unpause",
      "outputs": [],
      "stateMutability": "nonpayable",
      "type": "function"
    },
    {
      "inputs": [
        {
          "internalType": "uint256",
          "name": "_tokenId",
          "type": "uint256"
        },
        {
          "internalType": "string",
          "name": "_tokenURI",
          "type": "string"
        }
      ],
      "name": "updateTokenURI",
      "outputs": [],
      "stateMutability": "nonpayable",
      "type": "function"
    }
  ],
  "bytecode": {
    "object": "0x60806040523480156200001157600080fd5b506040518060400160405280600481526020016366616b6560e01b81525060405180604001604052806004815260200163232a25a760e11b8152508160009080519060200190620000649291906200016b565b5080516200007a9060019060208401906200016b565b50506007805460ff191690555062000094600033620000c6565b620000c07f154c00819833dac601ee5ddded6fda79d9d8b506b911b3dbd54cdb95fe6c368633620000c6565b6200024d565b60008281526008602090815260408083206001600160a01b038516845290915290205460ff16620001675760008281526008602090815260408083206001600160a01b03851684529091529020805460ff19166001179055620001263390565b6001600160a01b0316816001600160a01b0316837f2f8788117e7eff1d82e926ec794901d17c78024a50270940304540a733656f0d60405160405180910390a45b5050565b828054620001799062000211565b90600052602060002090601f0160209004810192826200019d5760008555620001e8565b82601f10620001b857805160ff1916838001178555620001e8565b82800160010185558215620001e8579182015b82811115620001e8578251825591602001919060010190620001cb565b50620001f6929150620001fa565b5090565b5b80821115620001f65760008155600101620001fb565b600181811c908216806200022657607f821691505b6020821081036200024757634e487b7160e01b600052602260045260246000fd5b50919050565b6120b7806200025d6000396000f3fe608060405234801561001057600080fd5b50600436106101cf5760003560e01c806362cd520011610104578063a217fddf116100a2578063d0def52111610071578063d0def521146103d5578063d547741f146103e8578063e985e9c5146103fb578063e9a9c8501461043757600080fd5b8063a217fddf14610394578063a22cb4651461039c578063b88d4fde146103af578063c87b56dd146103c257600080fd5b80638456cb59116100de5780638456cb591461035e5780638de06f221461036657806391d148541461037957806395d89b411461038c57600080fd5b806362cd52001461030f5780636352211e1461033857806370a082311461034b57600080fd5b8063248a9ca3116101715780633f4ba83a1161014b5780633f4ba83a146102d657806342842e0e146102de57806342966c68146102f15780635c975abb1461030457600080fd5b8063248a9ca31461028d5780632f2ff15d146102b057806336568abe146102c357600080fd5b8063095ea7b3116101ad578063095ea7b31461023c57806318160ddd1461025157806318e97fd11461026757806323b872dd1461027a57600080fd5b806301ffc9a7146101d457806306fdde03146101fc578063081812fc14610211575b600080fd5b6101e76101e2366004611a4a565b61045e565b60405190151581526020015b60405180910390f35b61020461046f565b6040516101f39190611abf565b61022461021f366004611ad2565b610501565b6040516001600160a01b0390911681526020016101f3565b61024f61024a366004611b07565b610528565b005b610259610642565b6040519081526020016101f3565b61024f610275366004611bdd565b610652565b61024f610288366004611c24565b610686565b61025961029b366004611ad2565b60009081526008602052604090206001015490565b61024f6102be366004611c60565b6106b7565b61024f6102d1366004611c60565b6106dc565b61024f61075a565b61024f6102ec366004611c24565b610770565b61024f6102ff366004611ad2565b61078b565b60075460ff166101e7565b61025961031d366004611c8c565b6001600160a01b03166000908152600a602052604090205490565b610224610346366004611ad2565b6107fd565b610259610359366004611c8c565b61085d565b61024f6108e3565b610204610374366004611c8c565b6108f6565b6101e7610387366004611c60565b610968565b610204610993565b610259600081565b61024f6103aa366004611ca7565b6109a2565b61024f6103bd366004611ce3565b6109ad565b6102046103d0366004611ad2565b6109e5565b61024f6103e3366004611d5f565b610af5565b61024f6103f6366004611c60565b610b7b565b6101e7610409366004611d97565b6001600160a01b03918216600090815260056020908152604080832093909416825291909152205460ff1690565b6102597f154c00819833dac601ee5ddded6fda79d9d8b506b911b3dbd54cdb95fe6c368681565b600061046982610ba0565b92915050565b60606000805461047e90611dc1565b80601f01602080910402602001604051908101604052809291908181526020018280546104aa90611dc1565b80156104f75780601f106104cc576101008083540402835291602001916104f7565b820191906000526020600020905b8154815290600101906020018083116104da57829003601f168201915b5050505050905090565b600061050c82610bc5565b506000908152600460205260409020546001600160a01b031690565b6000610533826107fd565b9050806001600160a01b0316836001600160a01b0316036105a55760405162461bcd60e51b815260206004820152602160248201527f4552433732313a20617070726f76616c20746f2063757272656e74206f776e656044820152603960f91b60648201526084015b60405180910390fd5b336001600160a01b03821614806105c157506105c18133610409565b6106335760405162461bcd60e51b815260206004820152603e60248201527f4552433732313a20617070726f76652063616c6c6572206973206e6f7420746f60448201527f6b656e206f776e6572206e6f7220617070726f76656420666f7220616c6c0000606482015260840161059c565b61063d8383610c24565b505050565b600061064d60095490565b905090565b7f154c00819833dac601ee5ddded6fda79d9d8b506b911b3dbd54cdb95fe6c368661067c81610c92565b61063d8383610c9c565b6106903382610d36565b6106ac5760405162461bcd60e51b815260040161059c90611dfb565b61063d838383610db4565b6000828152600860205260409020600101546106d281610c92565b61063d8383610f5f565b6001600160a01b038116331461074c5760405162461bcd60e51b815260206004820152602f60248201527f416363657373436f6e74726f6c3a2063616e206f6e6c792072656e6f756e636560448201526e103937b632b9903337b91039b2b63360891b606482015260840161059c565b6107568282610fe5565b5050565b600061076581610c92565b61076d61104c565b50565b61063d838383604051806020016040528060008152506109ad565b610794816107fd565b6001600160a01b0316336001600160a01b0316146107f45760405162461bcd60e51b815260206004820152601a60248201527f6275726e3a2073656e646572206d757374206265206f776e6572000000000000604482015260640161059c565b61076d8161109e565b6000818152600260205260408120546001600160a01b0316806104695760405162461bcd60e51b8152602060048201526018602482015277115490cdcc8c4e881a5b9d985b1a59081d1bdad95b88125160421b604482015260640161059c565b60006001600160a01b0382166108c75760405162461bcd60e51b815260206004820152602960248201527f4552433732313a2061646472657373207a65726f206973206e6f7420612076616044820152683634b21037bbb732b960b91b606482015260840161059c565b506001600160a01b031660009081526003602052604090205490565b60006108ee81610c92565b61076d6110de565b6001600160a01b0381166000908152600a60205260408120546060918190036109585760405162461bcd60e51b8152602060048201526014602482015273151bdad95b88191bd95cc81b9bdd08195e1a5cdd60621b604482015260640161059c565b610961816109e5565b9392505050565b60009182526008602090815260408084206001600160a01b0393909316845291905290205460ff1690565b60606001805461047e90611dc1565b61075633838361111b565b6109b73383610d36565b6109d35760405162461bcd60e51b815260040161059c90611dfb565b6109df848484846111e9565b50505050565b60606109f082610bc5565b60008281526006602052604081208054610a0990611dc1565b80601f0160208091040260200160405190810160405280929190818152602001828054610a3590611dc1565b8015610a825780601f10610a5757610100808354040283529160200191610a82565b820191906000526020600020905b815481529060010190602001808311610a6557829003601f168201915b505050505090506000610aa060408051602081019091526000815290565b90508051600003610ab2575092915050565b815115610ae4578082604051602001610acc929190611e49565b60405160208183030381529060405292505050919050565b610aed8461121c565b949350505050565b610afd61128f565b7f154c00819833dac601ee5ddded6fda79d9d8b506b911b3dbd54cdb95fe6c3686610b2781610c92565b6000610b31610642565b610b3c906001611e8e565b9050610b4884826112d7565b610b528184610c9c565b6001600160a01b0384166000908152600a602052604090208190556109df600980546001019055565b600082815260086020526040902060010154610b9681610c92565b61063d8383610fe5565b60006001600160e01b03198216637965db0b60e01b1480610469575061046982611419565b6000818152600260205260409020546001600160a01b031661076d5760405162461bcd60e51b8152602060048201526018602482015277115490cdcc8c4e881a5b9d985b1a59081d1bdad95b88125160421b604482015260640161059c565b600081815260046020526040902080546001600160a01b0319166001600160a01b0384169081179091558190610c59826107fd565b6001600160a01b03167f8c5be1e5ebec7d5bd14f71427d1e84f3dd0314c0f7b2291e5b200ac8c7c3b92560405160405180910390a45050565b61076d8133611469565b6000828152600260205260409020546001600160a01b0316610d175760405162461bcd60e51b815260206004820152602e60248201527f45524337323155524953746f726167653a2055524920736574206f66206e6f6e60448201526d32bc34b9ba32b73a103a37b5b2b760911b606482015260840161059c565b6000828152600660209081526040909120825161063d92840190611965565b600080610d42836107fd565b9050806001600160a01b0316846001600160a01b03161480610d8957506001600160a01b0380821660009081526005602090815260408083209388168352929052205460ff165b80610aed5750836001600160a01b0316610da284610501565b6001600160a01b031614949350505050565b826001600160a01b0316610dc7826107fd565b6001600160a01b031614610e2b5760405162461bcd60e51b815260206004820152602560248201527f4552433732313a207472616e736665722066726f6d20696e636f72726563742060448201526437bbb732b960d91b606482015260840161059c565b6001600160a01b038216610e8d5760405162461bcd60e51b8152602060048201526024808201527f4552433732313a207472616e7366657220746f20746865207a65726f206164646044820152637265737360e01b606482015260840161059c565b600081815260046020908152604080832080546001600160a01b03191690556001600160a01b038616835260039091528120805460019290610ed0908490611ea6565b90915550506001600160a01b0382166000908152600360205260408120805460019290610efe908490611e8e565b909155505060008181526002602052604080822080546001600160a01b0319166001600160a01b0386811691821790925591518493918716917fddf252ad1be2c89b69c2b068fc378daa952ba7f163c4a11628f55a4df523b3ef91a4505050565b610f698282610968565b6107565760008281526008602090815260408083206001600160a01b03851684529091529020805460ff19166001179055610fa13390565b6001600160a01b0316816001600160a01b0316837f2f8788117e7eff1d82e926ec794901d17c78024a50270940304540a733656f0d60405160405180910390a45050565b610fef8282610968565b156107565760008281526008602090815260408083206001600160a01b0385168085529252808320805460ff1916905551339285917ff6391f5c32d9c69d2a47ea670b442974b53935d1edc7fd64eb21e047a839171b9190a45050565b6110546114c2565b6007805460ff191690557f5db9ee0a495bf2e6ff9c91a7834c1ba4fdd244a5e8aa4e537bd38aeae4b073aa335b6040516001600160a01b03909116815260200160405180910390a1565b6110a78161150b565b600081815260066020526040902080546110c090611dc1565b15905061076d57600081815260066020526040812061076d916119e9565b6110e661128f565b6007805460ff191660011790557f62e78cea01bee320cd4e420270b5ea74000d11b0c9f74754ebdbfc544b05a2586110813390565b816001600160a01b0316836001600160a01b03160361117c5760405162461bcd60e51b815260206004820152601960248201527f4552433732313a20617070726f766520746f2063616c6c657200000000000000604482015260640161059c565b6001600160a01b03838116600081815260056020908152604080832094871680845294825291829020805460ff191686151590811790915591519182527f17307eab39ab6107e8899845ad3d59bd9653f200f220920489ca2b5937696c31910160405180910390a3505050565b6111f4848484610db4565b611200848484846115b5565b6109df5760405162461bcd60e51b815260040161059c90611ebd565b606061122782610bc5565b600061123e60408051602081019091526000815290565b9050600081511161125e5760405180602001604052806000815250610961565b80611268846116b6565b604051602001611279929190611e49565b6040516020818303038152906040529392505050565b60075460ff16156112d55760405162461bcd60e51b815260206004820152601060248201526f14185d5cd8589b194e881c185d5cd95960821b604482015260640161059c565b565b6001600160a01b03821661132d5760405162461bcd60e51b815260206004820181905260248201527f4552433732313a206d696e7420746f20746865207a65726f2061646472657373604482015260640161059c565b6000818152600260205260409020546001600160a01b0316156113925760405162461bcd60e51b815260206004820152601c60248201527f4552433732313a20746f6b656e20616c7265616479206d696e74656400000000604482015260640161059c565b6001600160a01b03821660009081526003602052604081208054600192906113bb908490611e8e565b909155505060008181526002602052604080822080546001600160a01b0319166001600160a01b03861690811790915590518392907fddf252ad1be2c89b69c2b068fc378daa952ba7f163c4a11628f55a4df523b3ef908290a45050565b60006001600160e01b031982166380ac58cd60e01b148061144a57506001600160e01b03198216635b5e139f60e01b145b8061046957506301ffc9a760e01b6001600160e01b0319831614610469565b6114738282610968565b61075657611480816117b7565b61148b8360206117c9565b60405160200161149c929190611f0f565b60408051601f198184030181529082905262461bcd60e51b825261059c91600401611abf565b60075460ff166112d55760405162461bcd60e51b815260206004820152601460248201527314185d5cd8589b194e881b9bdd081c185d5cd95960621b604482015260640161059c565b6000611516826107fd565b9050600082815260046020908152604080832080546001600160a01b03191690556001600160a01b03841683526003909152812080546001929061155b908490611ea6565b909155505060008281526002602052604080822080546001600160a01b0319169055518391906001600160a01b038416907fddf252ad1be2c89b69c2b068fc378daa952ba7f163c4a11628f55a4df523b3ef908390a45050565b60006001600160a01b0384163b156116ab57604051630a85bd0160e11b81526001600160a01b0385169063150b7a02906115f9903390899088908890600401611f84565b6020604051808303816000875af1925050508015611634575060408051601f3d908101601f1916820190925261163191810190611fc1565b60015b611691573d808015611662576040519150601f19603f3d011682016040523d82523d6000602084013e611667565b606091505b5080516000036116895760405162461bcd60e51b815260040161059c90611ebd565b805181602001fd5b6001600160e01b031916630a85bd0160e11b149050610aed565b506001949350505050565b6060816000036116dd5750506040805180820190915260018152600360fc1b602082015290565b8160005b811561170757806116f181611fde565b91506117009050600a8361200d565b91506116e1565b60008167ffffffffffffffff81111561172257611722611b31565b6040519080825280601f01601f19166020018201604052801561174c576020820181803683370190505b5090505b8415610aed57611761600183611ea6565b915061176e600a86612021565b611779906030611e8e565b60f81b81838151811061178e5761178e612035565b60200101906001600160f81b031916908160001a9053506117b0600a8661200d565b9450611750565b60606104696001600160a01b03831660145b606060006117d883600261204b565b6117e3906002611e8e565b67ffffffffffffffff8111156117fb576117fb611b31565b6040519080825280601f01601f191660200182016040528015611825576020820181803683370190505b509050600360fc1b8160008151811061184057611840612035565b60200101906001600160f81b031916908160001a905350600f60fb1b8160018151811061186f5761186f612035565b60200101906001600160f81b031916908160001a905350600061189384600261204b565b61189e906001611e8e565b90505b6001811115611916576f181899199a1a9b1b9c1cb0b131b232b360811b85600f16601081106118d2576118d2612035565b1a60f81b8282815181106118e8576118e8612035565b60200101906001600160f81b031916908160001a90535060049490941c9361190f8161206a565b90506118a1565b5083156109615760405162461bcd60e51b815260206004820181905260248201527f537472696e67733a20686578206c656e67746820696e73756666696369656e74604482015260640161059c565b82805461197190611dc1565b90600052602060002090601f01602090048101928261199357600085556119d9565b82601f106119ac57805160ff19168380011785556119d9565b828001600101855582156119d9579182015b828111156119d95782518255916020019190600101906119be565b506119e5929150611a1f565b5090565b5080546119f590611dc1565b6000825580601f10611a05575050565b601f01602090049060005260206000209081019061076d91905b5b808211156119e55760008155600101611a20565b6001600160e01b03198116811461076d57600080fd5b600060208284031215611a5c57600080fd5b813561096181611a34565b60005b83811015611a82578181015183820152602001611a6a565b838111156109df5750506000910152565b60008151808452611aab816020860160208601611a67565b601f01601f19169290920160200192915050565b6020815260006109616020830184611a93565b600060208284031215611ae457600080fd5b5035919050565b80356001600160a01b0381168114611b0257600080fd5b919050565b60008060408385031215611b1a57600080fd5b611b2383611aeb565b946020939093013593505050565b634e487b7160e01b600052604160045260246000fd5b600067ffffffffffffffff80841115611b6257611b62611b31565b604051601f8501601f19908116603f01168101908282118183101715611b8a57611b8a611b31565b81604052809350858152868686011115611ba357600080fd5b858560208301376000602087830101525050509392505050565b600082601f830112611bce57600080fd5b61096183833560208501611b47565b60008060408385031215611bf057600080fd5b82359150602083013567ffffffffffffffff811115611c0e57600080fd5b611c1a85828601611bbd565b9150509250929050565b600080600060608486031215611c3957600080fd5b611c4284611aeb565b9250611c5060208501611aeb565b9150604084013590509250925092565b60008060408385031215611c7357600080fd5b82359150611c8360208401611aeb565b90509250929050565b600060208284031215611c9e57600080fd5b61096182611aeb565b60008060408385031215611cba57600080fd5b611cc383611aeb565b915060208301358015158114611cd857600080fd5b809150509250929050565b60008060008060808587031215611cf957600080fd5b611d0285611aeb565b9350611d1060208601611aeb565b925060408501359150606085013567ffffffffffffffff811115611d3357600080fd5b8501601f81018713611d4457600080fd5b611d5387823560208401611b47565b91505092959194509250565b60008060408385031215611d7257600080fd5b611d7b83611aeb565b9150602083013567ffffffffffffffff811115611c0e57600080fd5b60008060408385031215611daa57600080fd5b611db383611aeb565b9150611c8360208401611aeb565b600181811c90821680611dd557607f821691505b602082108103611df557634e487b7160e01b600052602260045260246000fd5b50919050565b6020808252602e908201527f4552433732313a2063616c6c6572206973206e6f7420746f6b656e206f776e6560408201526d1c881b9bdc88185c1c1c9bdd995960921b606082015260800190565b60008351611e5b818460208801611a67565b835190830190611e6f818360208801611a67565b01949350505050565b634e487b7160e01b600052601160045260246000fd5b60008219821115611ea157611ea1611e78565b500190565b600082821015611eb857611eb8611e78565b500390565b60208082526032908201527f4552433732313a207472616e7366657220746f206e6f6e20455243373231526560408201527131b2b4bb32b91034b6b83632b6b2b73a32b960711b606082015260800190565b7f416363657373436f6e74726f6c3a206163636f756e7420000000000000000000815260008351611f47816017850160208801611a67565b7001034b99036b4b9b9b4b733903937b6329607d1b6017918401918201528351611f78816028840160208801611a67565b01602801949350505050565b6001600160a01b0385811682528416602082015260408101839052608060608201819052600090611fb790830184611a93565b9695505050505050565b600060208284031215611fd357600080fd5b815161096181611a34565b600060018201611ff057611ff0611e78565b5060010190565b634e487b7160e01b600052601260045260246000fd5b60008261201c5761201c611ff7565b500490565b60008261203057612030611ff7565b500690565b634e487b7160e01b600052603260045260246000fd5b600081600019048311821515161561206557612065611e78565b500290565b60008161207957612079611e78565b50600019019056fea2646970667358221220209f8a7935d5978a8b6db8af6fa54a5f33a829f6182a158305c49dd4358eb43964736f6c634300080d0033",
    "linkReferences": {}
  },
  "methodIdentifiers": {
    "DEFAULT_ADMIN_ROLE()": "a217fddf",
    "MINT_ROLE()": "e9a9c850",
    "approve(address,uint256)": "095ea7b3",
    "balanceOf(address)": "70a08231",
    "burn(uint256)": "42966c68",
    "getApproved(uint256)": "081812fc",
    "getRoleAdmin(bytes32)": "248a9ca3",
    "grantRole(bytes32,address)": "2f2ff15d",
    "hasRole(bytes32,address)": "91d14854",
    "isApprovedForAll(address,address)": "e985e9c5",
    "mint(address,string)": "d0def521",
    "name()": "06fdde03",
    "ownerOf(uint256)": "6352211e",
    "pause()": "8456cb59",
    "paused()": "5c975abb",
    "renounceRole(bytes32,address)": "36568abe",
    "revokeRole(bytes32,address)": "d547741f",
    "safeTransferFrom(address,address,uint256)": "42842e0e",
    "safeTransferFrom(address,address,uint256,bytes)": "b88d4fde",
    "setApprovalForAll(address,bool)": "a22cb465",
    "supportsInterface(bytes4)": "01ffc9a7",
    "symbol()": "95d89b41",
    "tokenByOwner(address)": "62cd5200",
    "tokenURI(uint256)": "c87b56dd",
    "tokenURIByOwner(address)": "8de06f22",
    "totalSupply()": "18160ddd",
    "transferFrom(address,address,uint256)": "23b872dd",
    "unpause()": "3f4ba83a",
    "updateTokenURI(uint256,string)": "18e97fd1"
  },
  "id": 25
}